:020000040800F2
:10000000C812002081010008E1490008AF31000852
:1000100000000000000000000000000000000000E0
:10002000000000000000000000000000E54900089A
:100030000000000000000000E3490008C15B000868
:1000400093010008000000009301000893010008DC
:1000500093010008990E000893010008A90E0008FA
:1000600000000000930100089301000893010008BC
:1000700093010008CD5B0008930100080000000018
:100080009301000800000000000000009301000838
:10009000000000009301000893010008930100088C
:1000A0009301000893010008930100089966000875
:1000B00093010008000000000000000000000000A4
:1000C00000F002F800F030F80CA030C8083824180E
:1000D0002D18671EA246AB4654465D46AC4201D180
:1000E00000F022F87E460F3EB6460FCC0126334282
:1000F00000D0FB1A3343A246AB4618472C7C0000C5
:100100004C7C00000023002400250026103A01D377
:1001100078C1FBD8520700D330C100D50B607047BF
:100120001FB51FBD10B510BD00F0C9F91146FFF78E
:10013000F7FF06F03FFE00F0E1F903B4FFF7F2FF2E
:1001400003BC00F0E7F9000070B505460C46164602
:1001500002E00FCC0FC5103E102EFAD2082E02D3AB
:1001600003CC03C5083E042E07D301CC01C5361FBE
:1001700003E021782970641C6D1C761EF9D270BDD5
:100180000748804707480047FEE7FEE7FEE7FEE72F
:10019000FEE7FEE704480549054A064B70470000A4
:1001A000C95B0008C1000008C80C0020C81200206C
:1001B000C80E0020C80E002030B5441C03E00178B2
:1001C000401C00290DD08107F9D10B4BDD0104C87B
:1001D000D11A91432940FAD0001B0A0603D0C01E51
:1001E00030BD001B30BD0A0401D0801E30BD0902A5
:1001F000FCD0401E30BD000001010101F8B5042A09
:100200002CD3830712D00B78491C0370401C521E5C
:1002100083070BD00B78491C0370401C521E8307C8
:1002200004D00B78491C0370401C521E8B079B0F97
:1002300005D0C91ADF002023DE1B08C90AE0FFF73A
:1002400083FFF8BD1D4608C9FD401C46B4402C4341
:1002500010C0121F042AF5D2F308C91A521EF0D496
:100260000B78491C0370401C521EEAD40B78491CC1
:100270000370401C012AE4D409780170F8BD01E044
:1002800004C0091F0429FBD28B0701D50280801C02
:10029000C90700D00270704700290BD0C30702D0F5
:1002A0000270401C491E022904D3830702D5028034
:1002B000801C891EE3E70022EEE70022DFE7000052
:1002C000002203098B4273D3030A8B4258D3030BDA
:1002D0008B423CD3030C8B4221D312E003460B43E9
:1002E0007FD4002243088B4274D303098B425FD32F
:1002F000030A8B4244D3030B8B4228D3030C8B425B
:100300000DD30902FF2212BA030C8B4202D3121240
:10031000090265D0030B8B4219D300E0090AC30B15
:100320008B4201D3CB03C01A5241830B8B4201D3C2
:100330008B03C01A5241430B8B4201D34B03C01AAB
:100340005241030B8B4201D30B03C01A5241C30A23
:100350008B4201D3CB02C01A5241830A8B4201D394
:100360008B02C01A5241430A8B4201D34B02C01A7E
:100370005241030A8B4201D30B02C01A5241CDD223
:10038000C3098B4201D3CB01C01A524183098B426E
:1003900001D38B01C01A524143098B4201D34B0157
:1003A000C01A524103098B4201D30B01C01A5241BA
:1003B000C3088B4201D3CB00C01A524183088B4241
:1003C00001D38B00C01A524143088B4201D34B002A
:1003D000C01A5241411A00D201465241104670479C
:1003E0005DE0CA0F00D04942031000D340425340A1
:1003F0009C46002203098B422DD3030A8B4212D361
:100400008901FC2212BA030A8B420CD38901921192
:100410008B4208D3890192118B4204D389013AD0CF
:10042000921100E08909C3098B4201D3CB01C01AA4
:10043000524183098B4201D38B01C01A52414309B7
:100440008B4201D34B01C01A524103098B4201D3A5
:100450000B01C01A5241C3088B4201D3CB00C01A12
:10046000524183088B4201D38B00C01A5241D9D22A
:1004700043088B4201D34B00C01A5241411A00D2AB
:1004800001465241104663465B1001D34042002BA7
:1004900000D54942704763465B1000D3404201B526
:1004A0000449002802DC491C084000E00846C04618
:1004B000C04602BDFFFFFF7F70477047704775461B
:1004C00000F024F8AE46050069465346C008C00057
:1004D000854618B020B5FFF75DFE60BCB646002625
:1004E0000027C0C5C0C5C0C5C0C5C0C5C0C5C0C542
:1004F000C0C5403D490849008D46704710B50446C7
:10050000C046C0462046FFF718FE10BD00487047A1
:100510002806002001491820ABBEFEE72600020095
:10052000704770B58C180578401C6B075B0F01D1C4
:100530000378401C2A1106D10278401C03E006789B
:10054000401C0E70491C5B1EF9D12B0705D40023FB
:10055000521E0DD40B70491CFAE70378401CCB1ACD
:10056000921C03E01D780D70491C5B1C521EF9D5CE
:10057000A142D8D3002070BDF0B58BB0C14800783F
:10058000002807D0C0480168012901DB491E01602D
:100590000BB0F0BDBC480268501E05928241BB4BB7
:1005A00019780291491E4C4201914C411440B84ABD
:1005B00011780391B74A11780491B74A1278B74B72
:1005C0001E78B74B1F78B74B1D78B74B1B78B749D0
:1005D00009780A91B64909780991B64909780891CC
:1005E000B54909780791B54909780691012C24D1BC
:1005F0000699002921D1079900291ED108990029BF
:100600001BD10999002918D10A99002915D1002B6D
:1006100013D1002D11D1002F0FD1002E0DD1002AA2
:100620000BD10499002908D10399002905D1059817
:10063000401E954908600BB0F0BD51425141012266
:10064000544021434DD09E48017848424841002CF7
:10065000009200D10246002A48D070427041002C1E
:10066000009A00D10246002AE1D078427841002C5D
:10067000009A00D10246002AD9D068426841002C75
:10068000009A00D10246002A059C36D0661E2046FC
:10069000B04102998D1E6F426F4107405842584148
:1006A000002F009A00D11046002800D1DBE03B4625
:1006B00053408448017848424841002B00D102460B
:1006C000002A00D1CFE00A9948424841002B009A05
:1006D00000D10246002A00D1C5E0112C0FDB00201A
:1006E0000EE005990329A4DA0120A2E70598022863
:1006F00001DB401E9DE700209BE7601E99E701207B
:100700000299022900D0009809994A424A410028DA
:10071000009800D11046691E8D41002805D0FF20A9
:100720009230844203DB002002E0A01E81E701201A
:10073000009A002D00D10246089948424841002AFB
:10074000009A00D10246002A03D0332C06DB002099
:1007500005E0323C4C4804600BB0F0BD0120009A2B
:10076000002D00D10246079948424841002A009ACC
:1007700000D10246002A76D00A93652C01DB0020C6
:1007800000E00120002D009A00D10246069948425F
:100790004841002A009A00D10246002A67D00498F6
:1007A00042424241484801784B424B41029C012C55
:1007B00000D0009B002B009B00D11346019D6A1EB8
:1007C0009541002B56D0049B5A425A414B1E9941E9
:1007D000002D009B00D10B46002B009900D1114643
:1007E000002949D00499484248410A9900290099B2
:1007F00000D10146002936D0039842424241ED48DB
:1008000001784B424B41002D009C00D11C46002C2E
:10081000009B00D11346002B2CD0039B5A425A4117
:100820004B1E9941002D009B00D10B46002B00D19F
:1008300000920099002923D00399481E81410F405E
:10084000012F00D0A4E60998002800D0A0E608985F
:10085000002800D09CE60798002800D098E606986B
:10086000002800D094E6C24806600BB0F0BD0598A1
:10087000401FDEE6491E00E00D2101700BB0F0BD07
:100880001521FAE7080A0020580B00204E0B002023
:10089000B9080020B808002091060020C7080020F1
:1008A000BD080020BB080020BA080020BE080020B8
:1008B000C3080020C0080020C2080020C108002092
:1008C00093060020BC08002088060020F0B589B0FF
:1008D000A6480078002805D0A548016807294FDC04
:1008E000491C4EE0A3480478A34800780290A3482E
:1008F0000678A3480778A3480578A3480378A34857
:100900000178A34800780890A24A10780790A24A7C
:1009100012780692A14A10780590A14A10780490A6
:10092000A04A10780390A04A1078019001282BD19A
:100930000398002828D10498002825D1059800287C
:1009400022D1069A002A1FD1079800281CD10898A6
:10095000002819D1002917D1002B15D1002D13D152
:10096000002F11D1002E0FD1029800280CD1002C9D
:100970000AD17F480168622900DCB2E06421B1E05D
:100980000921016009B0F0BD00947A427A410198D2
:10099000471E7C1EA741174300D192E001247742F5
:1009A000774101282646024600D13E46002E00D15E
:1009B0008DE06E426E41012A254600D13546002D5C
:1009C00000D18AE05D425D41012A234600D12B46D9
:1009D000002B00D181E04B424B41012A214600D13E
:1009E0001946002979D0089841424141022A2046FF
:1009F00000D10846002870D0079948424841022A91
:100A0000214600D10146002971D00699484248414B
:100A1000022A214600D1014600296ED0059948429C
:100A20004841022A214600D1014600296BD0049991
:100A300048424841022A214600D1014600296DD092
:100A4000039948424841022A214600D10146002923
:100A50006FD0DD48017848424841022A214600D142
:100A60000146002939D0029948424841019901299B
:100A7000214600D10146002966D0029948424841EA
:100A800001990229214600D10146002900D170E7D1
:100A900000994842484101990129214600D1014667
:100AA000002959D00099484248410199022900D1B2
:100AB0000446012C00D165E70698002800D158E7CC
:100AC00060E7F148016801290BDD03210AE0EE48E7
:100AD0000168002905DD022104E0EB4801680029D6
:100AE00003DA491C016009B0F0BD0121FAE7E648CC
:100AF0000168FD29F5DDFF21F4E7E34801682F29AE
:100B00000ADC891CEEE72949DF4802688A420EDCCC
:100B10003232026009B0F0BD3221E3E77D2080006F
:100B2000831ED9490A689A420BDC501C09E0333114
:100B3000D8E77D208000831FD3490A689A4200DCF1
:100B4000501D086009B0F0BD19480178491CCAB2AF
:100B50000D2A08D9002106E016480178491CCAB2BE
:100B6000152A00D90021017009B0F0BD080A002043
:100B7000580B0020B9080020B80800209306002078
:100B800091060020C7080020BD080020BB080020F7
:100B9000BA080020BE080020C3080020C0080020BA
:100BA000C2080020C10800204E0B00209D07000055
:100BB0008806002089060020F0B581B06E490A78C9
:100BC000022A02D0002A33D009E06C4909784B424E
:100BD0004B416B490C78651EAC411C4317D0022178
:100BE0004A4069490B7813435A1E9341674A127869
:100BF000544254411C431FD1624A125CA248026015
:100C000063480078002805D00A20504310E05D4A70
:100C1000105C0DE05F480078002801D0500007E02C
:100C20005D480078002800D1A4E0052050435649D3
:100C3000954A1060012008705548007800281DD0A2
:100C4000914804686421204606F0C6FE0A2529461C
:100C5000FFF744FB3031514F79702046294606F0AA
:100C6000BBFE06462946FFF739FB3031B9707543A4
:100C7000601B3030F8707D20C1003CE046480078B1
:100C800044490F783843000620D044492020C870DA
:100C90000E467D4804686421204606F09DFE0A2524
:100CA0002946FFF71BFB303131702046294606F0FC
:100CB00093FE06462946FFF711FB3031374A517043
:100CC0007543601B30309070002F1AD1334F2020B5
:100CD000F8706D4804680A252046294606F07CFE17
:100CE00006462946FFF7FAFA303179707543601BE2
:100CF0003030B8706421204606F06EFE303027494F
:100D0000087027480078002807D05F48006800284E
:100D10000FD001282CD1244A26E02448007800284E
:100D200009D059480068002811D0012820D1214A53
:100D30001AE01C4A18E020480078002809D05248E0
:100D4000006800280FD0012812D11D4A0CE0184A73
:100D50000AE01C4800780028D7D11B4800780028FA
:100D6000D3D10E4A00E0154A0020012102F062FBB7
:100D700001B0F0BD04495DE74E0B0020B80800202B
:100D8000090A00200B0A00200A0A0020B9080020E6
:100D9000C0080020C2080020C10800200C0B002061
:100DA000C7080020B1000020C1000020BD080020BD
:100DB000DD000020AC050020BB0800201C00002046
:100DC0002C000020BA080020BC080020F0B581B03B
:100DD000264E01253570002425A22046214602F02A
:100DE00029FB27490A78042A37D826487A441279F9
:100DF000520097442902242705002248401C23E082
:100E00000C70214804601F494C608C60CC60C8782D
:100E10008A780B784F780C60642179437D27FF0036
:100E20007B4359180A235343C91808181749401817
:100E3000EA37B84214D13470154805700DE01148F6
:100E4000801C01E00F48C01C0F4909783031017047
:100E5000002001210B4A02F0EDFA002001B0F0BDA4
:100E600034700B4804700B480570F6E7080A002040
:100E7000456E7465722050617373776F72643A00C7
:100E8000340B0020F8090020580B0020B02FFFFF82
:100E90006D0B00201E0B002080B5012000F0BAFA77
:100EA000022000F0B7FA80BD80B5402000F0B2FA11
:100EB0000120000300F0AEFA80BDB0B586B00C464C
:100EC000054600F051FA012005900220029004200E
:100ED0000390281BC117490D4018C0120490002030
:100EE000019002A801A900F0C9F800F021F906B0AC
:100EF000B0BDEFF3108072B6FEE70000F0B581B030
:100F000005460120009000F073FB0646A54F3868A7
:100F1000C0030AD43868A4494A1C3A60084012D079
:100F2000A2494860009801B0F0BD0098040402E0B6
:100F300038682042EED0681CFAD000F059FB801BC4
:100F4000A842F5D311E039680020490311D500907B
:100F50000120840402E03868204209D0681CFAD0DD
:100F600000F046FB801BA842F5D3032001B0F0BD82
:100F7000009801B0F0BDC04670B500282AD00146E7
:100F800024314A78022A27D1046822680E239A4322
:100F90002260426C15682E4B1D40156025680122A9
:100FA00095432560046C1C2525401446AC40294D12
:100FB0002E6826432E60846CC56C6560046D002C21
:100FC00005D025681D402560436D806D58604A70CE
:100FD000002004E0012070BD0422C2630120002231
:100FE0000A7070BD70B5014624314A78022A2BD1AF
:100FF00003681A680E24A2431A601C6801229443F5
:101000001C60446C2568124B1D402560046C1C2537
:1010100025401446AC400F4D2E6826432E60846C4C
:10102000C56C6560046D002C05D025681D402560E9
:10103000436D846D5C6000240C704A70816B0029E4
:1010400000D08847204670BD0421C163012070BDD7
:10105000FFFEFFFF04000240B0B5044600F0C8FAEE
:101060000546601C02D004480078041900F0C0FA5C
:10107000401BA042FAD3B0BD20060020F0B583B0DB
:101080000546B64C2078012802D1022003B0F0BDFD
:10109000029100276760012020707D20C600304645
:1010A000FFF72CFF002839D1042068602868042845
:1010B00009D11D48801C1B490A6802430A6030465A
:1010C000FFF71CFF2AE0F843029908603946AF6831
:1010D000E868C01987420191084619D2FC001149FD
:1010E0000868124A104020430F4A104308603046F7
:1010F000FFF704FF002808D1A868E9680818083439
:101100007F1C8742EBD3019801E002990F60934C5A
:10111000044B1968022291431960019F277003B0A4
:10112000F0BDC046142002400200010005E0FEFFB1
:10113000F0B581B00120009000F05AFA0446884DC5
:101140002868C0030BD5009807047D20C60000F076
:101150004FFA001BB0421AD228683842F7D12868EB
:1011600080494A1C2A60084002D07C4948600EE051
:10117000286840030BD5009887047D20C60000F046
:1011800037FA001BB04202D228683842F7D10098E3
:10119000C0076968014369606868C043C00F01B057
:1011A000F0BDC04610200240FA830000A00C0020D1
:1011B000F0B587B00E4669490C78012C01D10226A2
:1011C000C8E001930292039000200590486001203E
:1011D00008700490040400F00BFA0546604A106899
:1011E000C0030AD57D20C70000F002FA401BB842B8
:1011F0002FD25B4A10682042F6D1106859494B1C27
:101200001360084003D055494860049EA0E0009355
:101210000120049080040690106840030BD57D20C7
:10122000C70000F0E5F9401BB84212D24C4A1068E2
:1012300006990842F5D1039F012F0DD15068012175
:101240000143516002983060BFF36F8F0198706066
:1012500048E0032641497BE0506806990843506006
:10126000EFF310800190EFF3108172B6059A1146EA
:10127000029843587350731845186F685F60AF68E1
:101280009F60EF68DF602F691F616F695F61AF6901
:101290009F61EF69DF612F6A1F626F6A5F62AF6AE9
:1012A0009F62EF6ADF622F6B1F636F6B5F63AF6BD1
:1012B0009F63ED6BDD630F231343403110323F2BEF
:1012C000D7D3274A1168214208D01168214205D09E
:1012D0001168214202D011682142F3D1019880F3B4
:1012E0001088039F164600F083F9054630682042B7
:1012F00032460AD07D20C60000F07AF9401BB04289
:1013000020D2174A10682042F6D110680099116067
:101310001449084003D011494860049E15E0106844
:101320000026069908420BD07D20C40000F060F929
:10133000401BA04206D20A4A106806990842F5D11D
:10134000064902E003260549054A5068B843506043
:1013500005980870304607B0F0BDC046A00C0020CC
:1013600010200240FA8300000648C168002901D419
:10137000002070470449016004490160C068C00F43
:101380007047C0460820024023016745AB89EFCD76
:1013900010B5194C2178002928D13F2809DC0128F3
:1013A00013D0022822D18948022100F013F91549EF
:1013B00016E040280FD001210903884216D10520EC
:1013C000000700F007F910490AE08048012100F009
:1013D00001F90B4904E07E48402100F0FBF8074981
:1013E0000A4A00231370424242410A7000202070D2
:1013F0000749087010BDC046C5080020DC09002060
:10140000D8090020D9090020DA090020A607002009
:10141000A7070020B0B50446074D2868204203D036
:101420002C60204600F00AF86868204203D06C6007
:101430002046FFF7ADFFB0BD0C180240704700001A
:10144000F0B58AB00A68002A00D1B7E00E465C49C0
:10145000884201D0052100E0032100910027089770
:1014600009973C46029601900FE01A432A60641CDB
:1014700032681146E140BF1C089B1B1D0893099B65
:1014800008330993002900D198E001250495A5406F
:101490002A400792EBD003231846B840C043394690
:1014A00077683A461A40561E012E0697059112D8C3
:1014B00006460390019883683340029EF6688E408A
:1014C0001E438660FB06DB0FA3404668AE431E4307
:1014D0004660039908E0032A0146019804D11A46A0
:1014E000029E069D059F1DE0C3680B40029EB568E5
:1014F000059FBD401D43C560022A069D12D1039180
:101500001C21089A11400F228A40E3089B00C3184F
:101510001D6A954332698A4003992A431A627568A5
:1015200003222A40BA4003680B4013430360A90317
:10153000890F9CD01821099A11400F238B40032258
:10154000254695431F4A5219156E9D436032052367
:101550001B0798420AD01D4B984205D01C4B98425D
:10156000009B04D1022302E0049B00E000238B4097
:101570002B431360134D2A687168CB0202D5079B79
:101580001A4301E0079B9A432A606A688B0202D5DE
:10159000079B1A4301E0079B9A436A600A4D6A68F9
:1015A0008B0302D5079B1A4301E0079B9A436A60AD
:1015B0002A68C90300D558E79A4357E70AB0F0BD37
:1015C000000C005000180240801802400004005037
:1015D0000008005000690840411E88417047002AF9
:1015E00002D0182281507047282281507047000095
:1015F000054800687047C0461F48007802490A68DD
:10160000101808607047C046C00C002010B50124B7
:10161000200208490A6802430A60032000F00CF81F
:10162000002801D0204610BD00F02AF800242046F2
:1016300010BDC04600200240B0B505460E480178F6
:101640000124002916D07D20C00006F0A3F9014630
:101650005648006806F09EF900F0C0FC032D09D83A
:10166000002807D10024E0432946224600F02AF84A
:10167000024805602046B0BD200600202406002058
:1016800082B009484168012211434160416811401C
:1016900001910199110702680A430260006808403D
:1016A0000090009802B070473C100240002805D41A
:1016B0001F21084001218140014801607047C04658
:1016C00000E100E0002805D40322034693430A4AC0
:1016D0009A1803E00C220240064BD2188007C00E75
:1016E0008901C9B28140FF238340106898430843B1
:1016F0001060704714ED00E000E400E0BFF34F8F8E
:10170000044805490160BFF34F8F00BF00BF00BF11
:1017100000BFFAE70CED00E00400FA05F0B581B077
:1017200003256902204E3246143A13688B43034363
:101730001360012461020022884204D1F748016845
:101740003068400502D4104601B0F0BD0092A702F7
:1017500006204843164906F01DF9201A022814D025
:101760003168394213D0012813D03168394212D080
:10177000002812D03168394211D0001D032810D042
:1017800031683942EAD1009ADDE72A46DBE7009A60
:10179000D9E72A46D7E7009AD5E72A46D3E7009A41
:1017A000D1E72A46CFE7C046147000401806002053
:1017B00040420F00F0B587B081788907524F01D4BD
:1017C00000264DE00590012319073A46203A10689B
:1017D0000840049006D11068084310601068084063
:1017E000069006980292039101931E02474C2068CE
:1017F00030432060FFF7FCFE05462068304207D1E9
:10180000FFF7F6FE401B0228F7D9032605981FE0D4
:101810000320054601023868084011D0059949693E
:1018200088420BD03868019909043A680A433A6043
:101830003A688A433A60364908403860C00754D154
:101840003A683348024005984169114339600026DF
:101850000499002904D1029B1968039A91431960E5
:101860000568E90707D0394608390A6803239A430F
:10187000436813430B60A90608D5032109033A46C0
:10188000083A13688B4381681943116001216A0487
:1018900015D53A46083A13681E4C23400C4631468B
:1018A0000669334313601B4A521C96420E4621467A
:1018B00005D10A043B46503B1C6814431C602A05B2
:1018C00010D58D03032292033B46083B1C689443CA
:1018D000C26814431C60AA4204D10804503F39680E
:1018E00001433960304607B0F0BDFFF781FE064680
:1018F000804C38688007A3D4FFF77AFE801BA04293
:10190000F7D905982E46A3E75C100240007000400E
:10191000FFFCFFFFFFFFFF3FF0B583B00D46012145
:10192000002800D1D1E0019102907148006807249D
:101930002040A84214D26E490868A043284308609A
:101940006C4EFFF755FE0746694800682040A842E4
:1019500006D0FFF74DFEC01BB042F5D90321B4E01D
:10196000029E306881078E4B0CD5410703D52103B9
:101970001A680A431A600F2109021A688A43B1687B
:1019800011431960C00719D1594800682040A84286
:1019900029D957490868A04328430860554FFFF7E5
:1019A00027FE0646524800682040A8421BD0FFF799
:1019B0001FFE801BB842F5D9032186E002984068DB
:1019C00003285AD8810001A251588F46DD1900081A
:1019D0007F1A0008891A0008931A00081946083966
:1019E0000968490557E0029A107840076C4B05D505
:1019F000200319688143D06808431860186880067E
:101A0000400F22D01A6838210A406648082A23D09D
:101A10001A680A40102A5BD1596803220A40032A37
:101A200000D0614859684906490F491C05F0B2FFCA
:101A30005B4949684904490E484359494968490F77
:101A4000491C05F0A7FF564B06E018460838006809
:101A50008004410F5448C840196889093C220A4053
:101A6000254989581F220A40D0402C490860234844
:101A70000068FFF7E1FD014627E0596D0AE01946CD
:101A800008390968890306E0194608390968890197
:101A900001E0996D8907019917D51968A1430143A0
:101AA0001960144FFFF7A4FD06463D480068382131
:101AB000014002984068C000814200D164E7FFF70E
:101AC00097FD801BB842F0D90321084603B0F0BD52
:101AD00018680840202802D10120C003BCE718681C
:101AE0000840182801D00020B6E77D200002B3E7A7
:101AF00000200240881300008C7B00082406002090
:101B00000648006826490968890A1C220A400449D7
:101B100089581F220A40D0407047C046180600204E
:101B2000CC7B000810B51E4C20688006400F06D004
:101B3000226838210A401B48082A07D110BD083CFA
:101B400020688004410F1848C84010BD22680A4030
:101B5000102A15D1616803220A40032A00D01248D6
:101B600061684906490F491C05F014FF6168490482
:101B7000490E48436168490F491C05F00BFF10BD31
:101B800020680840202802D10120C00310BD206831
:101B90000840182801D0002010BD7D20000210BD93
:101BA0000810024000127A000024F400F0B587B05B
:101BB0000125002800D1F8E1049505900078C007C0
:101BC000FD4F2AD0B868F96803252A468A43382190
:101BD000014010204840821850425041082914D03A
:101BE000002812D105984268012001048A4208D0D9
:101BF00005231B049A4200D0DCE082043B681343B7
:101C00003B603A680A433A60DDE03868800304D5F7
:101C100005984068002800D110E1059800788007F9
:101C200024D40598007800070CD5B8683821014005
:101C3000182973D1386E800704D50598806900286B
:101C400000D124E1059A1078400700D436E1B86845
:101C500038210140202976D1F86D800700D42DE18C
:101C60009068002800D029E1049D9EE1B9683820E1
:101C7000084010214140FA6803252A4002235340BE
:101C8000CA1851425141002820D000291ED138687D
:101C9000059AD168002900D1A3E00721C902884331
:101CA000116901433960012001023A680A433A6030
:101CB0008402FFF79DFC06463868204200D0A2E06F
:101CC000FFF796FC801B0228F6D96EE139684905BA
:101CD000059B03D5D968002900D1B1E07F21090215
:101CE0007A688A43596909021143796000280DD145
:101CF0000720C00239688143186908433860386892
:101D00008004400FAE49C140AE480160AE48006853
:101D1000FFF792FC002884D0049D46E1386E0599B7
:101D20008969002979D0012108433866FFF760FCF2
:101D30000646386E800785D4FFF75AFC801B0325C2
:101D40000228F6D931E1012003900107F86B084021
:101D5000029006D1F86B0843F863F86B08400690D0
:101D60000698019199480068C00513D403980402AD
:101D70009649086820430860FFF73AFC06469348F6
:101D80000068204206D1FFF733FC801B03250228A0
:101D9000F5D90AE1059880688D4C012805D0052801
:101DA0005ED1F86D04210143F965F86D039908438C
:101DB000F8655FE03B688B433B6081043B688B4385
:101DC0003B60002A3ED04404FFF712FC0646386808
:101DD000204200D021E7FFF70BFC801B6428F6D9D6
:101DE000E3E001210A02904338608C02FFF700FC17
:101DF00006463868204200D113E7FFF7F9FB801B45
:101E00000228F6D9D1E07F20000279688143059845
:101E1000406900020843786003E70121884338667F
:101E2000FFF7E6FB0646386E800700D40AE7FFF7A7
:101E3000DFFB801B03250228F5D9B6E0049DB4E042
:101E4000049DB2E04404FFF7D3FB06463868204205
:101E500000D1E2E6FFF7CCFB801B6428F6D9A4E0B2
:101E6000F96D039A9143F965F96D04229143F9657F
:101E700000280ED0FFF7BCFB0646F86D800715D48E
:101E8000FFF7B6FB801B0325A042F6D98DE0049D29
:101E90008BE0FFF7ADFB0646F86D800706D5FFF730
:101EA000A7FB801B0325A042F6D97EE002980028FC
:101EB000059A03D1F86B01998843F863D469002C23
:101EC00072D0B86838210140102903D1012C18D1F3
:101ED000049D6AE00125290638680491884338602A
:101EE000FFF786FB0646022C2CD103956C0638685A
:101EF000204232D0FFF77CFB801B03250228F6D955
:101F000053E0F86803210140059B1A6A91424FD1C2
:101F1000702101405A6A91424CD17F21090201404F
:101F20009A6A1202914249D11F2149040140DA6A9A
:101F30009142049D39D1072149070840196B884215
:101F400033D131E06C063868204229D0FFF750FBCE
:101F5000801B03250228F6D927E0F8681E490140B6
:101F6000059E20366DCE08431043190201432943D4
:101F70003143F960386804990843386003980007D2
:101F8000F9680143F960FFF733FB064638682042E1
:101F90000AD1FFF72DFB801B03250228F6D904E0A8
:101FA000F8680C490140F9600025284607B0F0BDEB
:101FB000049DFAE7049DF8E700100240049DF4E751
:101FC0000024F400180600202406002000700040C1
:101FD00088130000FCFFFEEF8C80C11F401E010E25
:101FE00001D0012070470749074A5060074803683D
:101FF0000B400321890759180160002090600721D8
:1020000011607047FFFFFF0010E000E020ED00E0EE
:10201000704770477047000070B53C22825C012A0F
:1020200001D1022070BD02463C3202235370006889
:10203000456883686E4CA04201D02E4604E00F260E
:102040003605B5434E682E437025AE430D683543C3
:102050004560A04202D0674CA04204D18024A34333
:10206000896819438160002010700121517070BD92
:10207000B0B5002819D0044605463C3568780028DC
:1020800004D100202870204600F05EF8022068701D
:10209000206803685649884202D0564A904206D1C9
:1020A00070229343A2681A4302E00120B0BD1A4691
:1020B000224B984208DD88420CD0214B984209D02F
:1020C000204B984206D036E04A4B984202D0334B20
:1020D000984230D103231B029A4323691343802281
:1020E0009343A2691A430260E268C2626268826234
:1020F000884205D01249884202D01249884201D153
:102100006169016322463E32443401214161036921
:10211000DB0702D003698B43036121711170517099
:102120009170D1701171517121706170A170E17065
:1021300069700020B0BD1346D1E7C046FF2B0140B7
:10214000004801400044014010B582B000681349C6
:10215000884216D0264988421DD10121C802104A62
:1021600013680343136012680240019201980D2422
:1021700000222046FFF7A6FA2046FFF797FA02B0A2
:1021800010BD0120C00306490A6802430A600968BD
:1021900001400091009802B010BDC04600200040F0
:1021A0004010024010B53D21415C012918D1014683
:1021B0003D3102220A700168C86801221043C860DC
:1021C0000B48814202D00B4881420BD188680A4BF0
:1021D00003400020062B02D01404A34202D110BDFC
:1021E000012010BD086810430860002010BDC046E3
:1021F000002C01400004004007000100F0B53C2223
:10220000825C012A01D10220F0BD02463C32022349
:1022100053700468A0684B4B0340A3600D68002313
:102220004F2D1EDC1F2D37DD202D39D0302D37D01E
:10223000402D00D084E0206A256A0126B54325623E
:10224000A569F026B543CE6836012E43A6610A255E
:10225000A843496801432162A0683B4901404731D6
:1022600068E06F2D25DD01204603B5423DD0000317
:102270008542184660D0702D62D1FF200002A5680B
:10228000854348688E68C96806430802304328437E
:10229000A060A068772136E0002D01D0102D4FD12D
:1022A000A068294901400D4307202843A060184633
:1022B00042E0502D29D0602D42D1206A256A102697
:1022C000B54325620F252D03A669AE43CD682D03C6
:1022D0003543A561A025A84349680901014321624E
:1022E000A06819490140673124E0FF252D02A66846
:1022F000AE434D688F68C9682F43090239433143A3
:10230000A1608003A168014314E0206A256A0126C8
:10231000B5432562A569F026B543CE6836012E4344
:10232000A6610A25A843496801432162A0680649BD
:1023300001405731A1601846137001215170F0BD62
:102340000120F9E78800CEFF88FFCFFF704700002B
:10235000F0B583B004460068C568022729463940B5
:102360004A424A410169029139404B424B41134371
:1023700013D16C49FE310161012121778069800709
:1023800003D02046FFF7E2FF05E0204600F0CEF83C
:10239000204600F0CCF800202077012604222946B0
:1023A00011404842484102994907314600D501464B
:1023B000032000020190002916D10092206859499B
:1023C000FC310161277780690199084203D02046DA
:1023D000FFF7BCFF05E0204600F0A8F8204600F01B
:1023E000A6F800202077009A08272946394048425D
:1023F000484102990907314600D50146002913D109
:1024000020684849F83101612277C069800703D00C
:102410002046FFF79BFF05E0204600F087F82046A6
:1024200000F085F8002020771021294048424841DB
:102430000299C906314600D50146002914D1206809
:102440003849F03101612777C0690199084203D00A
:102450002046FFF77BFF05E0204600F067F82046A6
:1024600000F065F8002020770121294048424841CA
:102470000299C907314600D00146002906D12068DB
:102480002849FF310161204600F052F880272F4093
:10249000784278414121C901029A0A42314600D06E
:1024A0000146002905D120681F4901612046FFF738
:1024B000B0FD784278410299C905314600D5014600
:1024C000002905D12068174901612046FFF7A0FDCA
:1024D000402129404842484102994906314600D5E9
:1024E0000146002906D120680E49C031016120460D
:1024F00000F03CFA202005406842684102998906B4
:1025000003D4002E04D003B0F0BD0646002EFAD14D
:1025100020680449E03101612046FFF77BFD03B0EC
:10252000F0BDC046FFFEFFFF7FDFFFFF7047704733
:10253000F0B581B0EA49884204D0EA4988420FD018
:1025400001B0F0BDE4480178022905D3E3490A78D7
:10255000012353400B700021491C017001B0F0BDF4
:10256000E14E40213046FFF735F8E04C00281BD003
:10257000012520462946FFF72DF800282DD04021BF
:102580003046FFF727F8012862D101212046FFF7E6
:1025900021F801285CD1D64800210170D54801708E
:1025A000D5480170D54F51E0D14F3878401C387074
:1025B000D24B1D78D04A11782646002901D16D1CD6
:1025C0001D70CC4C2178EDB2192D1ED300291CD1E1
:1025D000012020700020187036E0C54F3878411C6B
:1025E0003970C64B1E78C44A1078002801D1761C79
:1025F0001E70C04C2078F6B2192E0FD300280DD1D2
:10260000012020700020187012E0192D12D301292A
:1026100010D1012010700220207015E0192E00D278
:102620000AE1012800D007E101201070022020708B
:10263000AE4C0AE0002900D014E1C2B2042A00D254
:1026400010E1B048FEF742F93446A74E002038703A
:1026500005200507012001032846FEF7BBFF0028DF
:1026600001D000200AE0A84800210170A7480178A5
:10267000491C0170C8B21E2802D31E20A34908704D
:1026800040213046FEF7A6FF0027002838460BD130
:102690009D48002101709E4801709E480078401CB2
:1026A000C0B21E2800D31E209A4908700126204679
:1026B0003146FEF78FFF00280BD1934800210170AF
:1026C00093480170944800681C2801DC471C00E016
:1026D0001E279148076002212046FEF77BFF002855
:1026E00002D08E48002109E08748002101708B4804
:1026F00001681C2901DC491C00E01E21016088489A
:10270000017800290FD082490A78521C0A70D2B28F
:10271000C82A08D100220270824806700A708248D6
:10272000067082480670784B1F78804C207880496C
:102730000A78002A03D1002801D17F1C1F70FFB244
:10274000642F03D30020187001202070002A0CD1C0
:10275000784A1378642B08D30020087076490870F3
:10276000714901200870207010707449097800299F
:102770000CD0734A13785B1C1370DBB20A2B05D3A1
:10278000002313706F4A13785B1E13706E4F3A78F4
:10279000002A0AD06D4A13785B1C1370DBB2142B2D
:1027A00004D3002616703E7000E00026684A1278B6
:1027B000002A22D0674A13785B1C1370DBB2052B0A
:1027C00005D100231370644A0123137003E0624AA9
:1027D0001278002A11D000290FD17D20C3005F4854
:1027E0005F490B2200F064FC5B48002101705D48EA
:1027F0000178491C01703E78207800280FD0002E07
:102800000DD159480178491C0170C9B2462900D23E
:1028100096E6462101700120C102002207E000284F
:1028200000D08DE65048002101700122D1022846D7
:10283000FEF7D5FE01B0F0BDC9B204292A4600D387
:102840000022431E04469C4114432D4A1268534201
:1028500053412343244E39D053425341022916D3C6
:10286000002415E00129344606D1C2B2022A03D35E
:102870002448FEF72BF8E8E602291B4E00D0E7E6D5
:10288000000600D1E4E61F48FEF720F8DEE601244A
:1028900001282E4600D12646002E2C4600D11C468B
:1028A000002C114E12D0534253414A424A41022851
:1028B000284600D1104600280C4C00D11D46002DA2
:1028C00000D0C5E60F48FDF757FEBFE60D48FDF7FF
:1028D00053FE064CBAE6C046A80700204F0B002066
:1028E000C00B0020740B00200008005000040050B2
:1028F00099070020350B0020ED000020A5070020DF
:10290000580B0020E4090020A7070020A40700209E
:10291000A6070020A90700209C070020A007002090
:102920006D0B0020BF0800201E0B0020C5080020F2
:10293000D709002098070020D5090020D6090020DB
:102940009A070020AD000020C6080020AA0700203A
:102950002C0B00201D0B00201C0B00200C0C002059
:10296000200B0020DD090020970700207047B0B53C
:102970008421415C012901D10220B0BD024684328C
:102980002421516001680B680C680125AC430C6080
:102990006C07A3430B60002141661170202050603A
:1029A0000846B0BD70477047F0B581B00546683540
:1029B0002A7F012A02D1022001B0F0BD24222A621E
:1029C0000668376832680124A24332600722520643
:1029D000B36893430B43B360406E0028204615D084
:1029E0000097B768B068400F2B49095C2B4A105C10
:1029F000C00004F0CFFF04463801009F400F264975
:102A0000095C264A105CC00004F0C4FF28806C807A
:102A10003760002028772021296201B0F0BDC04630
:102A2000F0B581B0054668352A7F012A02D102201F
:102A300001B0F0BD24222A6206683768326801249A
:102A4000A243326007225207B36893430B43B3603B
:102A5000406E0028204615D00097B768B068400F38
:102A60000D49095C0D4A105CC00004F093FF044658
:102A70003801009F400F0849095C084A105CC000FB
:102A800004F088FF28806C803760002028772021A0
:102A9000296201B0F0BDC046107C0008087C000827
:102AA0007047704770470000F0B58BB0034602686E
:102AB000D46920270125EE0231462F3121401068CC
:102AC00009935C33089306929268202905970A942B
:102AD00007920FD10146394001231B071340C91843
:102AE000044616D00998416F002900D1F7E18847C4
:102AF0000BB0F0BD31460F310C42044609D02B46D5
:102B0000EC4921402D076F1C079A1740791800D017
:102B100096E010220494214611404B424B410A9EFC
:102B2000314611404C424C4109980746C16E491E3E
:102B30004D1EA941214319433FD001250124A10580
:102B4000079801404B424B413046F1022946069A14
:102B500000D519460029059E00D1F3E0010608D5ED
:102B60008021049A1140E205079B1340C91800D048
:102B70009AE14022049911404B424B4141062946BB
:102B800000D51946002900D133E1A107049A11406C
:102B90004A424A410102294600D51146002900D186
:102BA0008FE10499002900DB90E10024C10100D5E8
:102BB0008FE1002D00D092E18EE1069802628068DC
:102BC0001646400600D5C4E008994B8808884A8814
:102BD000002A00D183E1984200D180E10A93EFF30B
:102BE0001083012282F310880924640139463D686C
:102BF0002F68A7432F6083F31088EFF3108382F3CD
:102C000010880C68A568B74F2F40A76083F3108821
:102C1000059B089C236300234B67CB66EFF310836F
:102C200082F310880A681468B443146083F3108830
:102C300002220A670A9A801A82B208461146D4E034
:102C40000297019503960A991E4619404B424B4143
:102C5000310221404D424D411D43069A05D10121CB
:102C60001162089D6B6B0B436B630120079F3B4612
:102C7000049003405D425D410A988107314600D5CA
:102C80002946002906D1022111620898416B0425CA
:102C90000D4345635D425D410A984107314600D5C9
:102CA0002946002906D1042111620898416B0223AC
:102CB0000B4343630A980107099D0ED50298411EF4
:102CC0008841A106314600D40146012905D10821D9
:102CD00011620898436B0B434363049881062140BB
:102CE0004B424B410A980399084200D01E46002EE1
:102CF000089E05D103981062716B059801437163BA
:102D0000716B002900D1EAE005980A9901400AD0C8
:102D100001990F4004403C4305D0696F002902D05F
:102D2000284688472A68706B282101409268402015
:102D30000240511870D12846FFF7B4FE002070639E
:102D40000BB0F0BD210511623846FFF7AAFE0BB0AB
:102D5000F0BD089C606A006841688AB2002A00D110
:102D6000BDE023889A4200D3B9E03D466180006807
:102D7000800633D4EFF31081012080F310885B4A82
:102D800020322B681C6814401C6081F31088EFF31C
:102D9000108180F310882A6893688343936081F3DD
:102DA0001088EFF3108180F310882A68936840241C
:102DB000A343089C936081F3108805992163002147
:102DC000E966EFF3108180F3108828680268B24347
:102DD000026081F31088606AFEF7CEF8022028674F
:102DE00020886188401A81B22846FFF7DBFD0BB0CE
:102DF000F0BDEFF3108084F3108839680B689343BB
:102E00000B6080F310880021B9670899CE623846BC
:102E100000F0CCF90BB0F0BDEFF31081049E86F307
:102E20001088092252012B681C6894431C6081F3AE
:102E30001088EFF3108186F310882A689368294C74
:102E40001C40946081F31088E96E01290BD1EFF3E7
:102E50001081049A82F310882A6813681024A3430F
:102E6000136081F31088089C059921630021E966AD
:102E700069672968896849061ED5EFF31081049AAD
:102E800082F310882A6893688343936081F31088E3
:102E9000606A002810D014498163FEF7A3F8002867
:102EA0001DD0606A816B22E6B96F002917D03846C1
:102EB0001DE6C046200100042846FFF7F3FD0BB0D5
:102EC000F0BD3846FFF7ECFD0BB0F0BDC10100D4FA
:102ED0006FE62546002D02D13846FFF764FD0BB0A2
:102EE000F0BDC046FEFFFFEF6D5D0008DFFEFFFF97
:102EF000B0B5002830D004460546843568680028FF
:102F000004D100202870204600F028F824206860B2
:102F1000206801680125A9430160A06A002802D049
:102F2000204602F05BFE204603F0B8F9012811D0DC
:102F30000920C00221684A6882434A6088682A22C0
:102F4000904388600868012202430A60204602F02C
:102F5000AFFE05462846B0BD0120B0BDB0B58CB06F
:102F60000024069405940494039400681B49884245
:102F700001D00CB0B0BD02940125019501A8FEF767
:102F800019FC002801D0FDF7B4FF1548C1680B9566
:102F9000AA031143C160C168114000910099016802
:102FA000294301600068284000900A940994022097
:102FB000089003204002079000980520000707A909
:102FC000FEF73EFA1B25284621462246FEF77AFBED
:102FD0002846FEF76BFB0CB0B0BDC0460038014080
:102FE00034100240F0B581B08C23C358202B10D18F
:102FF0000124002922D0002A20D001231C03856847
:10300000A54208D1CC0706D00469002C03D11C4688
:1030100014E0022412E00024C46605686D682D02E5
:103020000AD5EFF3108583F310889B06066837688E
:103030001F43376085F3108803F0E6F9204601B09E
:10304000F0BD0000F0B581B01349884201D001B055
:10305000F0BD12480124047011480078114D124E41
:103060003178002906D029680A2903DC0F4A505418
:103070004C1C09E0AA2808D10C4F781C0A21FDF746
:103080001AF9AA20387034702C60034804490122D0
:10309000FFF7A8FF01B0F0BD0C0C00202B0B0020A7
:1030A0006C0B0020700B00206B0B0020600B0020CD
:1030B000F0B585B0054607465437786B202812D105
:1030C000012000290DD01646002A0AD01C460120F6
:1030D0000303AA689A4209D1CA0707D02A69002ABD
:1030E00004D105B0F0BD022005B0F0BD0191002073
:1030F0000390F863212078630293FEF779FA049035
:103100007E803E80A8680299884202D12869002802
:1031100001D0019E02E000260198039078880028E3
:1031200027D028680AE0002E1AD031788162761CF8
:103130007988491E7980798800291BD0C1690906E0
:10314000F1D4611CFAD0FEF753FA01460320002C9B
:1031500026D0049A891AA14222D828680168EDE78E
:10316000039A1188104B19408162921C0392002629
:10317000DEE72868C169002602E028680168C169A5
:1031800049060CD4611CFAD0FEF732FA014603203E
:10319000002C05D0049A891AA142EED900E03046ED
:1031A0002021796305B0F0BDFF0100007047FEE704
:1031B00070B5052420070125290200263246FEF7B6
:1031C0000EFA304600F008F8284600F005F82046D0
:1031D000FDF742FF70BD0000F0B583B00446082241
:1031E00002400520050780212846FEF7F8F9042251
:1031F0002240402628463146FEF7F1F902222240BD
:1032000020212846FEF7EBF901273C4010212846F3
:103210002246FEF7E4F97D4831463A46FEF7DFF9EB
:103220007D20C100224C201F01900068401C0291AB
:1032300004F0B0FB0646FEF7DBF90746206831468E
:1032400004F0A8FB0546FEF7D3F9044618480068C9
:10325000314604F09FFBE11B029A5143281A4018A3
:103260003228F0D3402100226848FEF7B8F90198CF
:103270000068401C029904F08DFB0546FEF7B8F982
:1032800006460B480068294604F084FB0746FEF713
:10329000AFF9044606480068294604F07BFBA11BF1
:1032A000029A5143381A40183228F0D303B0F0BDC7
:1032B00018E000E0F0B58FB00220019008900120E6
:1032C00004900690002707970002039005900520C0
:1032D000040705AD20462946FEF7B2F840200290CB
:1032E00005904A482946FEF7ABF808260596474858
:1032F0002946FEF7A5F8454831463A46FEF76FF9EC
:1033000001980D9004980B903D460C9710200A9060
:103310000AAF20463946FEF793F820200A9020464F
:103320003946FEF78DF802980A9020463946FEF796
:1033300087F880200A90264620463946FEF780F816
:10334000FEF756F9C72806D80120FDF785FEFEF7DF
:103350004FF9C828F8D382482F4605707F4805707A
:1033600003252846FFF738FF052402942046FDF781
:1033700073FE2846FFF730FF2046FDF76DFE284616
:10338000FFF72AFF2046FDF767FE02252846FFF7D4
:1033900023FF2046FDF760FE34463046039E31464B
:1033A0003A46FEF71CF92846FFF716FF0820FFF7FC
:1033B00013FF174804210170204631463A46FEF7B4
:1033C0000EF93846FFF708FF0C20FFF705FF2046EF
:1033D00031463A46FEF703F93846FFF7FDFE0498FA
:1033E000FFF7FAFE029D2846FDF736FE20463146DD
:1033F0003A46FEF7F4F83846FFF7EEFE0620FFF7F0
:10340000EBFE2846FDF728FE0FB0F0BD000400508B
:10341000D209002010B50446052000070122110240
:10342000FEF7DDF82009FFF7D7FE0F202040FFF759
:10343000D3FE10BDF0B583B0144607464748077069
:1034400000220129154600D80D4645480570052083
:1034500000070121090202900191FEF7C0F84148DE
:10346000405DC719F8B20009082100910843FFF731
:10347000B3FE0F252F403846FFF7AEFE277811E048
:10348000012202980199FEF7AAF83009FFF7A4FE7D
:103490002F403846FFF7A0FE30490878401C0870DE
:1034A0006778641C002F56D02C48007810281CD355
:1034B00000222A4802702A4B1878401CC1B2012908
:1034C000164600D806461E7002980199FEF787F846
:1034D000F0B224490F5C380900990843FFF77CFEDD
:1034E0002F403846FFF778FE2778FEB20D2E18D011
:1034F0000A2EC5D11A4B1878401CC1B200220129EE
:10350000164600D806461E7014480778029801999E
:10351000FEF765F8F0B21349085CC719F8B2000964
:1035200010E000220D4802700D4908780128164667
:1035300000D806460E7002980199FEF750F8094827
:10354000875D380900990843FFF746FE2F4038464B
:10355000FFF742FEA4E703B0F0BDC046D309002048
:10356000D4090020047C0008F0B583B0032900D9F9
:1035700076E3044606462236433001902046683002
:103580000290880001A108588746C0469D35000872
:10359000133700087D390008E73A00080120207041
:1035A000B64800786070B64AD078A070B5484178C7
:1035B000E17051782171C1786171B3490978A171C5
:1035C000B2490978E171B24909782172B1498B8811
:1035D000A3731B0AE37313782374937863741379CA
:1035E0005279E274A374AC4F7A78BB786375227514
:1035F0000278A2758278E275027940796076227647
:10360000A648C078A076A648C078E076A54800789D
:10361000207708683070010EF170010CB170000A5B
:10362000707020462630A04906252A46FCF7E6FDA4
:103630003878B072F8782D216054787939799B4ABE
:103640001278B2739A4A1278F2739A4A12783274E4
:10365000994A12787274994A1278B274984A127818
:10366000F274984A12783275974A12787275974AAE
:103670001278B275964A1278F275964A12783276B6
:10368000954A12787276954A1278727722462D32D0
:1036900051709070814A107840216054204640302B
:1036A000917881705178417050791179019E317013
:1036B0007070204645308A492A46FCF79FFD784BBA
:1036C00018784B216054987859781A795B7933735C
:1036D000F27222464B325170907020465030814930
:1036E0002A46FCF78BFD204656307F492A46FCF7D8
:1036F00085FD20465C307D492A46FCF77FFD20464B
:1037000062307B492A46FCF779FD7A487A497B4A40
:103710009DE2012020707A4800786070794AD07864
:10372000A07079484178E17051782171C178617158
:1037300076490978A171117821749178617474497E
:103740008B88A3731B0AE37313795279E274A37411
:10375000704F7A78BB78637522750278A27582788B
:10376000E27502794079607622766B48C078A0765F
:103770006A48C078E0766A48007820770868307038
:10378000010EF170010CB170000A707020462630F5
:10379000644906252A46FCF731FD3878B072F8787E
:1037A0002D216054787939795F4A1278B2735F4A73
:1037B0001278F2735E4A127832745E4A127872742A
:1037C0005D4A1278B2745D4A1278F2745C4A1278DB
:1037D00032755C4A127872755B4A1278B2755B4A30
:1037E0001278F2755A4A127832765A4A12787276FC
:1037F000594A1278727722462D3251709070464A9B
:103800001078402160542046403091788170517882
:10381000417050791179019E3170707020464530A9
:103820004E492A46FCF7EAFC3C4B18784B21605481
:10383000987859781A795B793373F27222464B3251
:10384000517090702046503045492A46FCF7D6FC0E
:103850002046563043492A46FCF7D0FC20465C30CF
:1038600041492A46FCF7CAFC204662303F492A46B5
:10387000FCF7C4FC3E483F493F4AE8E115010020FF
:103880006C0200209A000020530B0020AF0800209B
:103890009706002020020020520000205402002041
:1038A000820000208D0600203C020020D200002073
:1038B000FF000020FD050020840200208802002077
:1038C000FB000020EF000020F7000020F3000020A4
:1038D000DF09002095060020AB080020DA00002058
:1038E0006A000020D20500203C0B0020EA050020E1
:1038F00006060020AE08002080020020D60000202E
:10390000140100206602002094000020520B0020C9
:10391000180200204C0000204E0200207C000020F5
:103920008C06002036020020D1000020FE0000207E
:10393000FC0500208302002087020020FA000020FE
:10394000EE000020F6000020F2000020DE0900203A
:1039500094060020AA080020D9000020640000205E
:10396000CC050020360B0020E405002000060020D6
:10397000AE0000207F020020D50000200120207032
:10398000D74800786070D74AD078A070D648417880
:10399000E17051782171C1786171D4490978A171C0
:1039A0001178217491786174D1498B88A3731B0AB3
:1039B000E37313795279E274A374CE4F7A78BB78AB
:1039C000637522750278A2758278E2750279407972
:1039D00060762276C848C078A076C848C078E0767D
:1039E000C7480078207708683070010EF170010C2C
:1039F000B170000A707020462630C24906252A465A
:103A0000FCF7FCFB3878B072F8782D216054787997
:103A10003979BD4A1278B273BC4A1278F273BC4A43
:103A200012783274BB4A12787274BB4A1278B2743C
:103A3000BA4A1278F274BA4A12783275B94A1278D0
:103A40007275B94A1278B275B84A1278F275B84AE6
:103A500012783276B74A12787276B74A127872774D
:103A600022462D3251709070A34A10784021605444
:103A700020464030917881705178417050791179A9
:103A8000019E3170707020464530AC492A46FCF7E3
:103A9000B5FB9A4B18784B216054987859781A796D
:103AA0005B793373F27222464B325170907020462C
:103AB0005030A3492A46FCF7A1FB20465630A149C5
:103AC0002A46FCF79BFB20465C309F492A46FCF7C0
:103AD00095FB204662309D492A46FCF78FFB9C48A7
:103AE0009C499D4AB3E0012020705E4800786070D8
:103AF0005D4AD078A0705D484178E17051782171BD
:103B0000C17861715A490978A1711178217491784D
:103B1000617458498B88A3731B0AE3731379527934
:103B2000E274A374544F7A78BB7863752275027877
:103B3000A2758278E27502794079607622764F48E4
:103B4000C078A0764E48C078E0764E48007820775E
:103B500008683070010EF170010CB170000A7070CD
:103B600020462630484906252A46FCF747FB387888
:103B7000B072F8782D21605478793979434A1278F7
:103B8000B273434A1278F273424A12783274424A4C
:103B900012787274414A1278B274414A1278F274FF
:103BA000404A12783275404A127872753F4A12784C
:103BB000B2753F4A1278F2753E4A127832763E4A22
:103BC000127872763D4A1278727722462D32517001
:103BD00090702A4A107840216054204640309178F5
:103BE00081705178417050791179019E31707070F7
:103BF0002046453032492A46FCF700FB204B187816
:103C00004B216054987859781A795B793373F27242
:103C100022464B32517090702046503029492A4636
:103C2000FCF7ECFA2046563027492A46FCF7E6FA1C
:103C300020465C3025492A46FCF7E0FA20466230EF
:103C400023492A46FCF7DAFA22482349234A127804
:103C5000029B1A70097859700078404909786054BD
:103C600003B0F0BD1701002078020020A60000205C
:103C7000550B0020300200205E0000206002002072
:103C80008E0000208F06002048020020D400002073
:103C900001010020FF050020860200208A0200208A
:103CA000FD000020F1000020F9000020F5000020B8
:103CB0007E020020AC000020AD080020DC000020C7
:103CC00076000020DE050020480B0020F6050020CD
:103CD00012060020B000002082020020D800002040
:103CE0001601002072020020A0000020540B0020CA
:103CF00028020020580000205A02002088000020DE
:103D00008E06002042020020D30000200001002087
:103D1000FE0500208502002089020020FC00002012
:103D2000F0000020F8000020F4000020E00900204E
:103D300096060020AC080020DB0000207000002068
:103D4000D8050020420B0020F00500200C060020C2
:103D5000AF00002081020020D700002011000020C9
:103D6000F0B583B00446008A002801D003B0F0BD4E
:103D7000F94D2878002810D0FFF71AFAF748027892
:103D8000F7490B78134306D0002202700A70F548F9
:103D900002700120E06000202870A068002802D096
:103DA000012809D03DE00120A0600020A074FFF7A9
:103DB000FFF9A068012834D1EB4900250D70E068B7
:103DC00003280ED002281FD001282AD1E54805700B
:103DD000E6480560E6480570E6480570E64A28466C
:103DE0000EE001250D70DF4802210170E1480570E9
:103DF0000026E24A30463146FFF71CFBE04A3046D7
:103E00002946FFF717FB0CE0DB4A28462946FFF757
:103E100011FBD7480570D7480570DA484078FCF7A1
:103E2000CBFEA068022832D1CF4800250570E1689A
:103E300003290ED002291CD0012927D1C9480570B9
:103E4000CA480560CA480570CF480570CF4A284661
:103E50000BE0CD4901250D7005700026C74A30469C
:103E60003146FFF7E7FAC64A30462946FFF7E2FA3D
:103E70000CE0C64A28462946FFF7DCFABC48057024
:103E8000C1480570BF488078FCF796FEA0680328FB
:103E900034D1B54900250D70E06803280ED0022802
:103EA0001FD001282AD1AF480570B0480560B0483E
:103EB0000570B7480570B74A28460EE001250D7019
:103EC000A84802210170B24805700026AB4A30466E
:103ED0003146FFF7AFFAAA4A30462946FFF7AAFA59
:103EE0000CE0AC4A28462946FFF7A4FAA048057022
:103EF000A7480570A348C078FCF75EFEA0680428B8
:103F000035D1994900250D70E06803280ED00228AC
:103F10001FD001282AD19348057094480560944821
:103F200005709D4805709D4A28460EE001250D70DC
:103F30008C48022101709848057000268F4A30464F
:103F40003146FFF777FA8E4A30462946FFF772FA74
:103F50000CE0924A28462946FFF76CFA844805701F
:103F60008D48057087480079FCF726FEA068052873
:103F70003BD17D4800250570E168032911D0022955
:103F800023D0012931D179480560854805707548ED
:103F900005707748057083480570834A284629468E
:103FA00010E0704902220A70FC490D70012606706B
:103FB000FB480670714A28462946FFF73BFA704ACB
:103FC00028463146FFF736FA0FE0F4480121017028
:103FD000F44A28462946FFF72DFA65480570F0484F
:103FE000057068488079FCF7E7FDA06806283CD199
:103FF0005D4800250570E168032911D0022923D00E
:10400000012931D159480560E848057055480570C7
:1040100057480570E6480570E64A2846294610E0EC
:10402000504902220A70E1490D7001260670E048ED
:104030000670524A28462946FFF7FCF9504A28469E
:104040003146FFF7F7F90FE0D84801210170D94A4E
:1040500028462946FFF7EEF945480570D448057013
:104060004848C079FCF7A8FDA06807283BD13E4826
:1040700000250570E168032911D0022923D0012908
:1040800031D13A480560F84805703648057038481F
:104090000570F6480570F64A2846294610E0314971
:1040A00002220A70F0490D7001260670EF48067072
:1040B000324A28462946FFF7BDF9314A284631469B
:1040C000FFF7B8F90FE0E84801210170E84A2846F7
:1040D0002946FFF7AFF926480570E44805702948DE
:1040E000007AFCF769FDA068082800D048E11E4866
:1040F00000250570E068032858D002286CD00128FC
:1041000000D03CE1DB4805701848012707601548DE
:10411000057017480570D8480570D84A28462946C2
:10412000FFF788F9D6490878002800D125E1D5485D
:104130000678D5480278D5480378002E284600D165
:10414000EBE0032030400190701E0328029300D35F
:10415000B3E00020C5E0C0461E0B0020B9080020D7
:10416000B80800204E0B0020B0080020580B00209B
:1041700091060020C90900208B020020BC05002008
:10418000177D00080B0A0020CA090020EC0200205D
:10419000CB0900209C030020CC090020EC03002068
:1041A000C7080020CD0900209C040020B149002050
:1041B0000870B4490E78B4490B78B4490D78002ED4
:1041C000024647D0032131400191711E0329029517
:1041D00010D20022012621E00025ADA22846294662
:1041E000FFF728F9A64801210170A348057002F0E5
:1041F00059FAC4E00093FC210E400022A94F114659
:104200007B185D7852199D785219DD7852191B7907
:10421000D218091D8E42F3D14E1C009B019D002D2A
:104220000BD0A0498F5DD219012D06D071184E78A0
:104230009219022D01D08978521891B29A4D4D43AE
:10424000290C551AADB26D086918890961254D43CD
:10425000521B029D95490A7095490A72CA718D7167
:1042600048710B71C870F84800780870F7480078FA
:104270004870F74800788870F64800784872F64829
:1042800000788872F5480B22FBF7B8FFF4480178F4
:10429000002902D1F34901220A70002505707D2012
:1042A000C300F148E7490B22FEF702FFEF48012166
:1042B0000170A160E56003B0F0BD0092FC200640F3
:1042C0000020F24F01467A185378C0189378C0182E
:1042D000D378C01812798018091D8E42F3D14F1C73
:1042E000009A019B002B0BD0E849CE5D8019012B71
:1042F00006D079184E788019022B01D089784018A1
:1043000081B2E44B4B43190C431A9BB25B0859181A
:10431000890961234B43C01A029BDF490870DF49BA
:104320000872C8718B714D710A71CD70DC480078CC
:104330000870DC4800784870DB4800788870DB48FB
:1043400000784872DA4800788872DA480B22FBF766
:1043500055FFD9480178002902D1D84901220A70B5
:10436000002101707D20C300D548CC490B22FEF707
:104370009FFED44801210170D34900200870A06835
:1043800009285ED1BD4800250570E168491E032952
:1043900057D805A2515C49008F44C046C708002089
:1043A000CD0900209C0400200E273640BD080020C7
:1043B000CE0900203C050020C8480570C3480570A0
:1043C000C748056045608560C560B1480560AA487A
:1043D0000570C4480570A7480570AB480570BC4817
:1043E0000570C14A2846294629E0B9480570A24807
:1043F00001210170A4480570B7480078002800D159
:1044000001E102F0CFFA1CE09B480221017002F0AA
:10441000C9FAB0480078FCF7CFFB12E096490322B6
:104420000A70AA490D7001260670A9480670944AC0
:1044300028462946FEF7FEFF924A28463146FEF7F7
:10444000F9FFA0680A2800D087E08C480025057095
:10445000E168491E032900D97EE0C0467944097904
:1044600049008F44274A5862BB080020CF0900202A
:104470004C050020D7090020D00900205C05002051
:1044800093060020020100201300002014000020E9
:10449000284F502920284175746F292028434C2922
:1044A000000000000B0A0020D151000090060020FF
:1044B000600B00208D4805708D4805708F48057091
:1044C0008F4805708F4805708A48057083480570CD
:1044D0008348056045608560C5606D480560664835
:1044E0000570894805706248057067480570824804
:1044F0000570864A284629462CE07F4805705E48AC
:1045000001210170604805707348007800287DD053
:1045100002F004FB20E058480221017002F0FEFA8C
:104520006C480078FCF748FB16E070490D70704944
:104530000D7070490D70504903220A7001260670F3
:104540006D4806704E4A28462946FEF773FF4D4ACD
:1045500028463146FEF76EFFA0680B2801D0FFF712
:1045600005FC464900250D70E068032811D002289B
:1045700020D0012801D0FFF7F9FB3F4805704448DF
:1045800005604148057062480570624A2846294620
:1045900053E001240C70F848022101705C4804705B
:1045A0000025374A28462946FEF744FF354A284663
:1045B000214642E0574A28462946FEF73BFF32494A
:1045C0000120087052490D70EB490A78002A0AD080
:1045D0000870EC480068032824D0022811D0012874
:1045E00028D150481FE04C4A1278EF4B9A5C022ABF
:1045F0000FD3032A12D0022AEAD10870E14802211F
:10460000016047480FE0FCF7E1FB1AE7FCF7DEFB2F
:10461000A2E70870DB490860424804E00870D94806
:10462000032101603D48016842688368C068D04C3E
:104630000EC4206000200121CD4AFEF7FBFE03B02E
:10464000F0BDC046600B0020170000201B000020BA
:1046500019000020120000201A000020200B00206A
:10466000C40800202C0B00200C0C0020500B002054
:10467000B9080020B80800204E0B0020B008002028
:10468000BC050020177D0008910600200B0A0020C1
:10469000580B0020D151000090060020600B002034
:1046A000170000201B00002019000020120000202D
:1046B0001A000020200B0020C40800202C0B002032
:1046C0000C0C0020500B002093060020BA0800209C
:1046D000D10900208A0600206D0B0020340B002039
:1046E000F8090020880600206C050020C30800207F
:1046F000BE080020BC080020C7090020C008002018
:10470000C2080020C1080020890600209B0200206A
:10471000C8090020AB020020110000209C050020E9
:104720008C0500207C050020F0B583B004460A9873
:10473000002804D0218A0143218203B0F0BD16462F
:104740000D46089F002002902082012B14D1FEF715
:104750002FFD87488749016041608160C1608648BC
:10476000007886490978014304D10020E060A06800
:10477000401EA060FBF700FF012F14D1FEF718FDCB
:104780007B487C49016041608160C1607A48007863
:104790007A490978014304D10020E060A068401CF8
:1047A000A060FCF793F8764F012E28D138780028C6
:1047B00025D1FEF7FDFC6E486E49016041608160C5
:1047C000C1606E480078002809D06E480021016061
:1047D0006D480178491C0170012D13D0B2E06B4E79
:1047E0003078002843D000F0FFF800203070624994
:1047F000087067490870674908700120E060012D62
:1048000000D09FE06448007800287ED06348067896
:104810006348027863490D78002E029B42D003233F
:104820003340711E0329019502D20025012614E0B0
:104830000092FC210E4000255B4F294678184278F3
:10484000AA1885785219C578521900791518091DCA
:104850008E42F3D14E1C4A4F009A002B15D0384699
:1048600051498F5DED19012B07D107460DE0E06836
:10487000401CE060012DC5D064E071184E78AD1980
:10488000022B074601D089786D18A9B2474B4B43DC
:10489000190C6B1A9BB25B085918890961234B43A9
:1048A000EB1A019D4248037042490B72CB718D7126
:1048B000029848710A71C8703F48007808703F48F4
:1048C000007848703E48007888703E48007848720A
:1048D0003D48007888723D480B22FBF78FFC3C482E
:1048E0000178002902D13B4901220A700025057098
:1048F0007D20C30038482F490B22FEF7D9FB3748EB
:1049000001210170244805703D70FEF751FC1848E4
:104910001849016041608160C1601B490020087036
:104920001A490870E168491EE16013490A78002AB3
:1049300001D0521E0A7011490A78002A02D0114A89
:1049400010600870A0680B2801DD012002E000283B
:1049500001DC0B20A060E0680B2801DB0A2003E0EB
:10496000002800DDE9E60120E06003B0F0BDC046AC
:104970000C0B0020202020204E0B0020080A0020D5
:1049800093060020580B0020340B0020B0080020B4
:10499000090A00200A0A0020D7090020020100208D
:1049A00013000020140000200B0A0020D151000049
:1049B00090060020600B0020170000201B00002044
:1049C00019000020120000201A000020200B0020F7
:1049D000C40800202C0B00200C0C0020500B0020E1
:1049E000FEE7704770470000F0B587B0CE48CF496A
:1049F000016041608160C160FEF7DAFBCC480124B0
:104A000004707D20C0000690E00604900021C84399
:104A10000590C8480078C84D2A78002A039430D001
:104A200000282ED1C54801240470C5480068C54E31
:104A30007070C54F38460499FCF73FFAFF252046B1
:104A40002946324602F088F93846314602F07EFFA8
:104A500005982946324602F07FF9BC480778B748E6
:104A60000378B748006802900022002F154640D016
:104A700003253D40791E03290FD20021002D21D1AD
:104A80002BE043424341002A224600D01A46002A26
:104A900063D12970AE4A127897E00193FC210F4050
:104AA00000210C4630194378C9188378C918C37897
:104AB000C91800790918241DA742F3D1641C019B71
:104AC000002D0AD0375DC919012D06D0A4196678CA
:104AD0008919022D01D0A47809198CB29D4D654326
:104AE0002C0C0D1BADB26D082C19A4096125654372
:104AF0004D1B9948057099490D72CD7102988871C6
:104B00004A710B71CA709648007808709548007811
:104B100048709548007888709448007848729448A6
:104B20000078887293480B22FBF768FB9248017863
:104B3000002902D1914901220A7000240470904892
:104B400086490B22069BFEF7B3FA8E4801210170BD
:104B50007948047077480078039C414241417C4A7F
:104B60001278002A31D000282FD174490220087011
:104B700073480068734EB070734F38460499FCF761
:104B80009CF90124FF2520462946324602F0E4F82C
:104B90003846314602F0DAFE05982946324602F0E0
:104BA000DBF86A4807786548037865480068029032
:104BB0000022002F15463ED003253D40791E0329D3
:104BC0000DD20021002D1FD129E0002A224600D05D
:104BD0000A46002A63D15E4900220A705FE0019311
:104BE000FC210F4000210C4630194378C918837806
:104BF000C918C378C91800790918241DA742F3D130
:104C0000641C019B002D0AD0375DC919012D06D007
:104C1000A41966788919022D01D0A47809198CB2DB
:104C20004C4D65432C0C0D1BADB26D082C19A4091D
:104C3000612565434D1B4848057048490D72CD718B
:104C4000029888714A710B71CA70454800780870E3
:104C50004448007848704448007888704348007899
:104C6000487243480078887242480B22FBF7C6FA24
:104C700041480178002902D1404901220A700024EC
:104C800004703F4835490B22069BFEF711FA3D4858
:104C9000012101702E48047026480078039C3A4B8D
:104CA0001978002932D0002830D124480324047018
:104CB00023480068234EF070234F38460499FCF7D0
:104CC000FCF80120FF2502902946324602F044F804
:104CD0003846314602F03AFE05982946324602F03F
:104CE0003BF81A48057815480778154803680020EE
:104CF000002D024679D001972C402746691E0329D2
:104D000046D20021029C002F57D161E0424242412D
:104D10000029214600D01146002900D098E000214A
:104D200019701A4A1278CCE00C0B002020202020A9
:104D3000C608002091060020C9090020BC0C0020F4
:104D4000580B00200B0A002000F000080201002090
:104D5000CA090020D151000090060020600B0020FD
:104D6000170000201B000020190000201200002066
:104D70001A000020200B0020C40800202C0B00206B
:104D80000C0C0020500B0020CB090020CC09002087
:104D90000293FC210D4000210C4632195378C918AA
:104DA0009378C918D378C91812798918241DA54297
:104DB000F3D1641C029B002F0AD0325D8918012FA9
:104DC00006D0A21954780919022F01D092788918B7
:104DD0008AB2E64C5443220C8C1AA4B26408A2187E
:104DE0009209612454430A1B019FE1490A70E14979
:104DF0000A72CA718B7148710F71C870DE480078F1
:104E00000870DE4800784870DD4800788870DD481A
:104E100000784872DC4800788872DC480B22FBF787
:104E2000EDF9DB480178002902D1DA4901220A7044
:104E300000240470D848CF490B22069BFEF738F9AE
:104E4000D64801210170D6480470D6480078039CEA
:104E500041424141D44A1278002A32D0002830D150
:104E6000D24904200870D2480078D24E7071307157
:104E7000D14F38460499FCF720F80124FF2520463D
:104E80002946324601F068FF3846314602F05EFDA1
:104E900005982946324601F05FFFC8480778C348A5
:104EA0000378C348006802900022002F15463ED0C8
:104EB00003253D40791E03290DD20021002D1FD16D
:104EC00029E0002A224600D00A46002A63D1B649CA
:104ED00000220A705FE00193FC210F4000210C4684
:104EE00030194378C9188378C918C378C91800796C
:104EF0000918241DA742F3D1641C019B002D0AD080
:104F0000375DC919012D06D0A41966788919022DBB
:104F100001D0A47809198CB2944D65432C0C0D1B5B
:104F2000ADB26D082C19A409612565434D1B90484D
:104F3000057090490D72CD71029888714A710B719C
:104F4000CA708D48007808708C48007848708C488A
:104F5000007888708B48007848728B480078887297
:104F60008A480B22FBF74AF989480178002902D1C7
:104F7000884901220A700024047087487D490B2269
:104F8000069BFEF795F8854801210170864804705C
:104F900084480078039C8A4B1978002931D0002876
:104FA0002FD1824906200870814C2068814EB07153
:104FB000814F38460499FBF780FF0120FF250290BE
:104FC0002946324601F0C8FE3846314602F0BEFCA2
:104FD00005982946324601F0BFFE784807787348A5
:104FE000037824680022002F154642D003253D4057
:104FF000791E032901940FD200210298002D20D19F
:105000002AE0424242410029204600D010460028B2
:1050100066D10020187063E00293FC210F4000214C
:105020000C4630194378C9188378C918C378C91851
:1050300000790918241DA742F3D1601C029B002DA2
:105040000AD0375CC919012D06D0841966788919F0
:10505000022D01D0A47809198CB2444D65432C0C63
:105060000D1BADB26D082C19A409612565434D1BBC
:10507000019C3F4805703F490D72CD718C714A719A
:105080000B71CA703C48007808703C480078487042
:105090003B48007888703B48007848723A4800786E
:1050A00088723A480B22FBF7A9F8394801780029A1
:1050B00002D1384901220A700024047036482D4973
:1050C0000B22069BFDF7F4FF3449012008703C4990
:1050D0000C70374909680129039C01D139490870CE
:1050E00030480078384B1978002931D000282FD16A
:1050F0002E49072008702E4800682E4EF0712E4F62
:1051000038460499FBF7D9FE0124FF25204629469D
:10511000324601F021FE3846314602F017FC059870
:105120002946324601F018FE244807781F480378C4
:105130001F48006802900022002F154674D00325F6
:105140003D40791E032943D20021002D55D15FE057
:10515000424242410029214600D01146002900D098
:1051600096E000211970194A1278C9E0D151000067
:1051700090060020600B0020170000201B0000207C
:1051800019000020120000201A000020200B00202F
:10519000C40800202C0B00200C0C0020500B002019
:1051A000CB09002091060020CC090020BC0C002077
:1051B000580B00200B0A002000F00008020100201C
:1051C000CD090020510B0020CE090020CF0900207E
:1051D0000193FC210F4000210C4630194378C91877
:1051E0008378C918C378C91800790918241DA74203
:1051F000F3D1641C019B002D0AD0375DC919012D24
:1052000006D0A41966788919022D01D0A47809194D
:105210008CB2A04D65432C0C0D1BADB26D082C1942
:10522000A409612565434D1B9B4805709B490D7280
:10523000CD71029888714A710B71CA7098480078D4
:1052400008709848007848709748007888709748A8
:105250000078487296480078887296480B22FAF7D0
:10526000CDFF95480178002902D1944901220A70A6
:1052700000240470924889490B22069BFDF718FF11
:105280009048012101709048047090480078039C78
:10529000414241418E4A1278002A31D000282FD154
:1052A0008C49082008708C4800688C4E30728C4FF6
:1052B00038460499FBF701FE0124FF2520462946C4
:1052C000324601F049FD3846314602F03FFB059871
:1052D0002946324601F040FD824807787D48037830
:1052E0007D48006802900022002F15463ED003251D
:1052F0003D40791E03290DD20021002D1FD129E048
:10530000002A224600D00A46002A63D170490022B2
:105310000A705FE00193FC210F4000210C46301918
:105320004378C9188378C918C378C918007909184F
:10533000241DA742F3D1641C019B002D0AD0375DC8
:10534000C919012D06D0A41966788919022D01D03A
:10535000A47809198CB24F4D65432C0C0D1BADB2CE
:105360006D082C19A409612565434D1B4A48057039
:105370004A490D72CD71029888714A710B71CA70D9
:1053800047480078087047480078487046480078D9
:1053900088704648007848724548007888724548C9
:1053A0000B22FAF72BFF44480178002902D1434928
:1053B00001220A7000240470414838490B22069BE0
:1053C000FDF776FE3F4801210170414804703F48D7
:1053D0000078039C44490A78002A07D0002805D1A8
:1053E00000220A703B4908220A7007E04342434109
:1053F000002A224600D01A46002A38D03B490978B4
:10540000002938D0002836D139480278324800685F
:10541000324988541A2A00D1C876314F3846049947
:10542000FBF74BFD0124FF252C4E20462946324632
:1054300001F092FC3846314602F088FA0598294678
:10544000324601F089FC274807782948037822482A
:10545000006802900022002F154679D003253D40B8
:10546000791E032948D20021002D5AD164E0002280
:105470000A701E490978424242410029214600D063
:105480001146002900D099E0184A00211170194AEC
:105490001278F4E0D151000090060020600B00204B
:1054A000170000201B00002019000020120000201F
:1054B0001A000020200B0020C40800202C0B002024
:1054C0000C0C0020500B0020CE090020910600207B
:1054D000CF090020BC0C0020580B00200B0A002034
:1054E00000F0000802010020D0090020D1090020AE
:1054F0008A060020C70900200193FC210F400021EB
:105500000C4630194378C9188378C918C378C9186C
:1055100000790918241DA742F3D1641C019B002DBA
:105520000AD0375DC919012D06D0A41966788919EA
:10553000022D01D0A47809198CB2E84D65432C0CDA
:105540000D1BADB26D082C19A409612565434D1BD7
:10555000E3480570E3490D72CD71029888714A7174
:105560000B71CA70E04800780870E0480078487015
:10557000DF4800788870DF4800784872DE4800789D
:105580008872DE480B22FAF739FEDD4801780029DF
:1055900002D1DC4901220A7000240470DA48D149A2
:1055A0000B22069BFDF784FDD84801210170D848E5
:1055B0000470DA480470C3480078039C41424141BA
:1055C000D44A1278002A5AD0002858D1D4480178F9
:1055D000002907D000210170BD4C20680A2102F08B
:1055E000FBF92060CF480178002907D00021017025
:1055F000B7480168CA0F891849100160B44C206887
:10560000C9490A78002A05D000220A70052102F053
:10561000E3F92060C0490978AE4A5054232905D1E6
:105620002423D05489180873C8728872A64F38464C
:105630000499FBF742FC0124FF25A64E204629468B
:10564000324601F089FB3846314602F07FF9059871
:105650002946324601F080FB9F480078AE490B781E
:105660009B490F6800220028154640D003250540BD
:10567000411E03290DD20021002D21D12BE0002A4B
:10568000224600D00A46002A66D1A24900220A70AA
:1056900062E001970293FC21084000210C46371973
:1056A0007B78C918BB78C918FB78C9183B79C91829
:1056B000241DA042F3D1641C029B019F002D0AD03F
:1056C000305D0918012D06D0A01944780919022D62
:1056D00001D08078091888B2804C4443200C0C1A01
:1056E000A4B2640820188009612444430D1B7C483F
:1056F00005707C490D72CD718F714A710B71CA7042
:1057000079480078087079480078487078480078BF
:1057100088707848007848727748007888727748AF
:105720000B22FAF76BFD76480178002902D1754902
:1057300001220A700024047073486A490B22069BF8
:10574000FDF7B6FC7148012101707248047077487A
:1057500004705C480078039C4142414174480078E1
:10576000002803D1002C04D007B0F0BD0C46002C5B
:10577000FAD17048007855490870554800680328E8
:1057800007D0022809D0012810D1FF48C2796C49FE
:1057900006E0FD48C279684902E0FB48C2796749E2
:1057A000CA71027A0A72FF22FAF728FDB94F384609
:1057B0000499FBF782FB0124FF25F34E204629467E
:1057C000324601F0C9FA3846314602F0BFF8059872
:1057D0002946324601F0C0FAEA4807783B48037888
:1057E0003B48006805900022002F154634D0032561
:1057F0003D40791E032903D20021002D15D11FE061
:105800000493FC210F4000210C4630194378C9183D
:105810008378C918C378C91800790918241DA742CC
:10582000F3D1641C049B002D0AD0375DC919012DEA
:1058300006D0A41966788919022D01D0A478091917
:105840008CB2D24D65432C0C0D1BADB26D082C19DA
:10585000A409612565434D1BCD480570CD490D72E6
:10586000CD71059888714A710B71CA70CA48007869
:105870000870CA4800784870C94800788870C948DC
:1058800000784872C84800788872C8480B22FAF736
:10589000B5FCC7480178002902D1C64901220A7027
:1058A00000240470C448BB490B22069BFDF700FC92
:1058B000C24801210170034804701D48047007B0FC
:1058C000F0BDC0469106002000F00008BC0C00208E
:1058D000580B00200B0A002002010020D1510000CB
:1058E00090060020600B0020170000201B00002005
:1058F00019000020120000201A000020200B0020B8
:10590000C40800202C0B00200C0C0020500B0020A1
:10591000D1090020C70900208A060020B80800200D
:10592000C0080020C2080020C1080020B9080020DB
:10593000C80900201100002018010020C80800201C
:1059400098060020F0B587B0514C00252046294626
:10595000FDF70AFEFBF708FD1E20059002200190CE
:1059600003900420049001260696029503A802A93C
:10597000FBF784FBFBF7DCFB3602605D401C6055E7
:1059800060194178491C41708178491C8170C17847
:10599000491CC1700179491C01714179491C41714F
:1059A0008179491C8171C179491CC171017A491CF5
:1059B0000172417A491C4172817A491C8172C17A13
:1059C000491CC172017B491C0173417B491C417315
:1059D000817B491C8173C17B491CC1731035AE4268
:1059E000CBD1FBF7C1FC002706972A4D05950198FE
:1059F0000390029703A802A9FBF740FB2078002838
:105A00000CD0E25D012000232946FBF7D1FB7F1C6F
:105A100008352046FAF7D0FB8742F2D3FBF788FB24
:105A20000020215C491E215421184A78521E4A70D8
:105A30008A78521E8A70CA78521ECA700A79521E1B
:105A40000A714A79521E4A718A79521E8A71CA793C
:105A5000521ECA710A7A521E0A724A7A521E4A723B
:105A60008A7A521E8A72CA7A521ECA720A7B521EE1
:105A70000A734A7B521E4A738A7B521E8A73CA7B00
:105A8000521ECA7310308642CBD107B0F0BDC0465B
:105A9000AB07002000F00008F0B583B0394A157854
:105AA0000026002D34463BD003242C406B1E032BD4
:105AB00004D200230125002C18D125E00196029183
:105AC000FC231D400023304E1F46F219517859180F
:105AD0009378C918D378C91812798B183F1DBD4225
